:1000000028C04CC04BC04AC049C0A5C247C046C06A
:1000100045C044C043C042C041C040C03FC00000D2
:10002000000037000000000036000000000038002B
:10003000020202020202020202020102040810206D
:100040002004100801020000040000000000D0039A
:10005000260411241FBECFE5D2E0DEBFCDBF10E0E5
:10006000A0E6B0E0EAE2FBE002C005900D92A836FF
:10007000B107D9F720E0A8E6B0E001C01D92AB3887
:10008000B207E1F710E0C8E2D0E003C02197FE011B
:1000900019D4C732D107D1F7A8D23BC5B1CF4F92FF
:1000A0005F926F927F928F929F92AF92BF92EF92E8
:1000B000FF920F931F93CF93DF93EC018A019B0173
:1000C000290166247724E42C812E922EA32EBB24B2
:1000D000F82CA02F40917900442389F0A42FB0E0A0
:1000E000842D90E0BD01C9D3E92E882D90E0BD019B
:1000F000C4D3F92E802F90E0BD01BFD3A92F8091EA
:100100007F0090917C00E0917A00F0917B00891350
:1001100007C0CE0163E070E0B0D3E80FF91F16C04E
:10012000CC0FDD1FCC0FDD1FEC0FFD1F032F1127A0
:1001300022273327EF01C80FD11D411102C0902F94
:1001400004C0842F90E0B80198D3988380917C00FC
:10015000EF01C80FD11DE88280917D00EF01C80F2B
:10016000D11DF88280917E00E80FF11DA083DF9100
:10017000CF911F910F91FF90EF90BF90AF909F9004
:100180008F907F906F905F904F900895823081F0B4
:1001900018F4813051F00895833019F0843009F05B
:1001A00008958CB58F7D8CBD08958AB58F7702C078
:1001B0008AB58F7D8ABD0895CF93DF93282F30E0D5
:1001C000F901EC5BFF4F8491F901E65CFF4FD4919C
:1001D000F901E05DFF4FC491CC2389F08111D6DF96
:1001E000EC2FF0E0EE0FFF1FE65DFF4FA591B491FD
:1001F0009FB7F8948C91D095D823DC939FBFDF9163
:10020000CF910895CF93DF93E5E4F0E08491EBE3A1
:10021000F0E0D491E1E3F0E0C491CC2389F08111C6
:10022000B5DFEC2FF0E0EE0FFF1FEC5DFF4FA59167
:10023000B491EC91ED2381E090E021F480E002C0E4
:1002400080E090E0DF91CF910895CF93DF9390E02D
:10025000FC01E65CFF4F2491FC01E05DFF4F8491BF
:10026000882361F190E0880F991FFC01E25EFF4F47
:10027000C591D491FC01E65DFF4FA591B491611148
:1002800009C09FB7F8948881209582238883EC91D8
:100290002E230BC0623061F49FB7F8948881322F0F
:1002A000309583238883EC912E2B2C939FBF06C01F
:1002B0008FB7F894E8812E2B28838FBFDF91CF91E1
:1002C00008953FB7F89480916D0090916E00A091D1
:1002D0006F00B091700022B708B601FE05C02F3F35
:1002E00019F00196A11DB11D3FBFBA2FA92F982F5C
:1002F0008827820F911DA11DB11DBC01CD0142E0D7
:10030000660F771F881F991F4A95D1F708950F939D
:100310001F93CF93DF93CDB7DEB727970FB6F8942F
:10032000DEBF0FBECDBF80917A0090917B00892BFC
:1003300009F462C0C6DF0091800010918100209115
:10034000820030918300DC01CB01801B910BA20B5A
:10035000B30B8C329140A105B10560F3F894809104
:100360007600909177009A838983E0917A00F091EA
:100370007B00DF01119680818F83E0918400F091F2
:100380008500908180918600982B9E839081809536
:1003900089238D838D818C8388E08B835E816D8141
:1003A0004F813B812C8189819A81508347FD252F84
:1003B0003A952083262F39F0441F00C00000608347
:1003C000000000C0F2CF38E04D916083000001973B
:1003D00061F7F0938500E09384004F833B832C8387
:1003E0009A83898378946DDF609380007093810095
:1003F000809382009093830027960FB6F894DEBF17
:100400000FBECDBFDF91CF911F910F9108958F92B5
:100410009F92AF92BF92CF92DF92EF92FF926B01C9
:100420007C014FDF4B015C01C114D104E104F104F4
:10043000E9F047DFDC01CB0188199909AA09BB095A
:10044000883E9340A105B10578F321E0C21AD10896
:10045000E108F10888EE880E83E0981EA11CB11C0B
:10046000C114D104E104F10421F7DECFFF90EF9035
:10047000DF90CF90BF90AF909F908F900895CF92D4
:10048000DF92EF92FF92CF93DF936B017C01C0E08C
:10049000D0E08091740090917500C817D90760F47E
:1004A000B701A601CE01FBDD32DF62E370E080E040
:1004B00090E0ADDF2196EDCFDF91CF91FF90EF90EF
:1004C000DF90CF900895CF92DF92EF92FF920F933B
:1004D0001F93482F4095453570F4842F6DEFC4D19C
:1004E000815090E0A0E0B0E09C0111270027842F0C
:1004F00063E0BAD111C04A3AA8F44555842F63E0AD
:10050000B3D190E0A0E0B0E00027182F292F3A2FB8
:10051000842F6DEFA9D1815068017901C82AC701E4
:10052000B60112C04A5A842F6DEF9ED12FEF280FCB
:10053000842F63E099D190E0A0E0B0E0DC0199273E
:100540008827BC01CD01722B1F910F91FF90EF9076
:10055000DF90CF9008951F920F920FB60F92112443
:100560002F933F938F939F93AF93BF938091690095
:1005700090916A00A0916B00B0916C00309168007E
:1005800023E0230F2D3720F40196A11DB11D05C0D6
:1005900026E8230F0296A11DB11D209368008093C9
:1005A000690090936A00A0936B00B0936C008091F7
:1005B0006D0090916E00A0916F00B0917000019657
:1005C000A11DB11D80936D0090936E00A0936F00EC
:1005D000B0937000BF91AF919F918F913F912F91F8
:1005E0000F900FBE0F901F90189578948AB5826077
:1005F0008ABD8AB581608ABD83B7826083BF83B7B5
:10060000816083BF89B7826089BF80B7826080BF05
:1006100080B7816080BF329A319A309A379A8CB510
:1006200080648CBD20E030E080E80FB6F89486BD91
:1006300026BD0FBE62E081E008DE8091780087FD74
:1006400005C061E002DE80917800B6DD81E0809334
:1006500073005DDE80E0C82E80E0D82ED3DD11E08F
:10066000009709F410E0892B09F092C08091600096
:10067000882309F48DC064E170E080E090E0C7DE7B
:10068000C1DD11E0009709F410E0892B09F080C06A
:1006900080917100909172000196853091052CF443
:1006A000909372008093710004C0109272001092B7
:1006B0007100809171009091720082309105C9F0B3
:1006C00054F4009791F0019709F062C060E070E087
:1006D0008FEF90E017C084309105B1F07CF0059762
:1006E00009F056C0E12CF12C3EC060E070E0CB0177
:1006F00009C060E07FEF80E090E004C06FEF70E041
:1007000080E090E0BCDE44C0E12CF12CC0E0D0E001
:100710008091740090917500C817D90748F48C2F08
:100720008E0DD1DEAB01BC01CE01B9DC2196F0CF3C
:10073000EEDD64E170E080E090E069DE8FEFE81AC2
:10074000F80AE11481E0F80609F722C0E0DD64E16F
:1007500070E080E090E05BDE8FEFE81AF80AE114C9
:1007600085E0F806A9F0C0E0D0E0609174007091D7
:100770007500C617D70750F79C2F80E08FD0862FC3
:100780008E0DA1DEAB01BC01CE0189DC2196EDCF3F
:1007900010936000C114D10409F460CF31DC5ECF46
:1007A00010927300109279001092800010928100D4
:1007B000109282001092830081E080937F008093EA
:1007C0007C0010927D0082E080937E008AE590E0BC
:1007D00090937700809376007BD090937B008093FA
:1007E0007A00009761F02AE5FC0111922A95E9F759
:1007F0008EE190E0909375008093740008C0109291
:10080000770010927600109275001092740010928A
:10081000780080917300882329F061E080E015DD85
:1008200080E0CADCE0E3F0E0E491F0E0EE0FFF1FCF
:10083000E65DFF4F859194919093850080938400AD
:10084000EAE3F0E0E491E0938600089580917A0075
:1008500090917B00009709F0D3D08091780087FDBC
:1008600002C060E0F2CC0895002480FD060E660F01
:1008700011F08695D1F7802D08950024552704C0E6
:10088000080E591F880F991F009729F076956795D4
:10089000B8F37105B9F7802D952F0895AA1BBB1BDE
:1008A00051E107C0AA1FBB1FA617B70710F0A61B70
:1008B000B70B881F991F5A95A9F780959095BC0191
:1008C000CD010895EE0FFF1F0590F491E02D0994DE
:1008D0000F931F93CF93DF938230910510F482E042
:1008E00090E0E0918900F0918A0020E030E0A0E003
:1008F000B0E0309719F1408151810281138148178E
:100900005907C8F08417950769F4109731F01296CB
:100910000C93129713961C9327C000938900109391
:100920008A0022C02115310519F04217530718F427
:100930009A01BD01EF01DF01F801DBCF211531057F
:10094000F9F0281B390B2430310580F48A819B8112
:100950006115710521F0FB019383828304C090939C
:100960008A0080938900FE01329644C0FE01E20FA6
:10097000F31F8193919322503109398328833AC020
:100980002091870030918800232B41F4209163004F
:10099000309164003093880020938700209161009B
:1009A000309162002115310541F42DB73EB74091D9
:1009B000650050916600241B350BE0918700F09193
:1009C0008800E217F307A0F42E1B3F0B2817390706
:1009D00078F0AC014E5F5F4F2417350748F04E0F9B
:1009E0005F1F50938800409387008193919302C0CA
:1009F000E0E0F0E0CF01DF91CF911F910F910895DA
:100A0000CF93DF93009709F481C0FC0132971382E2
:100A10001282A0918900B0918A00109781F4208100
:100A20003181820F931F2091870030918800281711
:100A3000390751F5F0938800E093870067C0ED0116
:100A400020E030E0CE17DF0740F44A815B819E0151
:100A500041155105F1F0EA01F5CFD383C2834081FE
:100A60005181840F951FC817D90759F4888199813E
:100A7000840F951F0296918380838A819B81938343
:100A800082832115310529F4F0938A00E0938900CF
:100A90003DC0E901FB83EA8349915991C40FD51FF9
:100AA000EC17FD0761F480819181840F951F0296F8
:100AB000E90199838883828193819B838A83E0E023
:100AC000F0E012968D919C911397009719F0FD011B
:100AD000DC01F7CF8D919C9111979D012E5F3F4FC7
:100AE000820F931F209187003091880028173907C3
:100AF00069F4309729F410928A001092890002C09C
:100B000013821282B0938800A0938700DF91CF9167
:100B1000089510E0C8E2D0E003C0FE01D3DE2196C4
:0A0B2000C932D107D1F7F894FFCFD6
:080B2A000100008B00800000B7
:00000001FF
